{
  "_format": "hh-sol-artifact-1",
  "contractName": "FoundlingIdea",
  "sourceName": "src/FoundlingIdea.sol",
  "abi": [
    {
      "inputs": [],
      "stateMutability": "nonpayable",
      "type": "constructor"
    },
    {
      "anonymous": false,
      "inputs": [
        {
          "indexed": true,
          "internalType": "address",
          "name": "owner",
          "type": "address"
        },
        {
          "indexed": true,
          "internalType": "address",
          "name": "approved",
          "type": "address"
        },
        {
          "indexed": true,
          "internalType": "uint256",
          "name": "tokenId",
          "type": "uint256"
        }
      ],
      "name": "Approval",
      "type": "event"
    },
    {
      "anonymous": false,
      "inputs": [
        {
          "indexed": true,
          "internalType": "address",
          "name": "owner",
          "type": "address"
        },
        {
          "indexed": true,
          "internalType": "address",
          "name": "operator",
          "type": "address"
        },
        {
          "indexed": false,
          "internalType": "bool",
          "name": "approved",
          "type": "bool"
        }
      ],
      "name": "ApprovalForAll",
      "type": "event"
    },
    {
      "anonymous": false,
      "inputs": [
        {
          "indexed": false,
          "internalType": "uint256",
          "name": "_fromTokenId",
          "type": "uint256"
        },
        {
          "indexed": false,
          "internalType": "uint256",
          "name": "_toTokenId",
          "type": "uint256"
        }
      ],
      "name": "BatchMetadataUpdate",
      "type": "event"
    },
    {
      "anonymous": false,
      "inputs": [
        {
          "indexed": true,
          "internalType": "uint256",
          "name": "tokenId",
          "type": "uint256"
        },
        {
          "indexed": true,
          "internalType": "address",
          "name": "creator",
          "type": "address"
        },
        {
          "indexed": false,
          "internalType": "string",
          "name": "title",
          "type": "string"
        }
      ],
      "name": "IdeaCreated",
      "type": "event"
    },
    {
      "anonymous": false,
      "inputs": [
        {
          "indexed": true,
          "internalType": "uint256",
          "name": "tokenId",
          "type": "uint256"
        },
        {
          "indexed": true,
          "internalType": "address",
          "name": "funder",
          "type": "address"
        },
        {
          "indexed": false,
          "internalType": "uint256",
          "name": "amount",
          "type": "uint256"
        }
      ],
      "name": "IdeaFunded",
      "type": "event"
    },
    {
      "anonymous": false,
      "inputs": [
        {
          "indexed": true,
          "internalType": "uint256",
          "name": "tokenId",
          "type": "uint256"
        },
        {
          "indexed": false,
          "internalType": "bool",
          "name": "isActive",
          "type": "bool"
        }
      ],
      "name": "IdeaStatusChanged",
      "type": "event"
    },
    {
      "anonymous": false,
      "inputs": [
        {
          "indexed": false,
          "internalType": "uint256",
          "name": "_tokenId",
          "type": "uint256"
        }
      ],
      "name": "MetadataUpdate",
      "type": "event"
    },
    {
      "anonymous": false,
      "inputs": [
        {
          "indexed": true,
          "internalType": "address",
          "name": "previousOwner",
          "type": "address"
        },
        {
          "indexed": true,
          "internalType": "address",
          "name": "newOwner",
          "type": "address"
        }
      ],
      "name": "OwnershipTransferred",
      "type": "event"
    },
    {
      "anonymous": false,
      "inputs": [
        {
          "indexed": true,
          "internalType": "uint256",
          "name": "tokenId",
          "type": "uint256"
        },
        {
          "indexed": true,
          "internalType": "address",
          "name": "recipient",
          "type": "address"
        },
        {
          "indexed": false,
          "internalType": "uint256",
          "name": "amount",
          "type": "uint256"
        }
      ],
      "name": "RoyaltyDistributed",
      "type": "event"
    },
    {
      "anonymous": false,
      "inputs": [
        {
          "indexed": true,
          "internalType": "address",
          "name": "from",
          "type": "address"
        },
        {
          "indexed": true,
          "internalType": "address",
          "name": "to",
          "type": "address"
        },
        {
          "indexed": true,
          "internalType": "uint256",
          "name": "tokenId",
          "type": "uint256"
        }
      ],
      "name": "Transfer",
      "type": "event"
    },
    {
      "inputs": [],
      "name": "MIN_FUNDING_AMOUNT",
      "outputs": [
        {
          "internalType": "uint256",
          "name": "",
          "type": "uint256"
        }
      ],
      "stateMutability": "view",
      "type": "function"
    },
    {
      "inputs": [],
      "name": "ROYALTY_BASIS_POINTS",
      "outputs": [
        {
          "internalType": "uint256",
          "name": "",
          "type": "uint256"
        }
      ],
      "stateMutability": "view",
      "type": "function"
    },
    {
      "inputs": [
        {
          "internalType": "address",
          "name": "to",
          "type": "address"
        },
        {
          "internalType": "uint256",
          "name": "tokenId",
          "type": "uint256"
        }
      ],
      "name": "approve",
      "outputs": [],
      "stateMutability": "nonpayable",
      "type": "function"
    },
    {
      "inputs": [
        {
          "internalType": "address",
          "name": "owner",
          "type": "address"
        }
      ],
      "name": "balanceOf",
      "outputs": [
        {
          "internalType": "uint256",
          "name": "",
          "type": "uint256"
        }
      ],
      "stateMutability": "view",
      "type": "function"
    },
    {
      "inputs": [
        {
          "internalType": "string",
          "name": "title",
          "type": "string"
        },
        {
          "internalType": "string",
          "name": "description",
          "type": "string"
        },
        {
          "internalType": "string",
          "name": "category",
          "type": "string"
        },
        {
          "internalType": "string",
          "name": "tokenURI",
          "type": "string"
        }
      ],
      "name": "createIdea",
      "outputs": [
        {
          "internalType": "uint256",
          "name": "",
          "type": "uint256"
        }
      ],
      "stateMutability": "nonpayable",
      "type": "function"
    },
    {
      "inputs": [
        {
          "internalType": "uint256",
          "name": "tokenId",
          "type": "uint256"
        }
      ],
      "name": "distributeRoyalties",
      "outputs": [],
      "stateMutability": "nonpayable",
      "type": "function"
    },
    {
      "inputs": [],
      "name": "emergencyWithdraw",
      "outputs": [],
      "stateMutability": "nonpayable",
      "type": "function"
    },
    {
      "inputs": [
        {
          "internalType": "uint256",
          "name": "tokenId",
          "type": "uint256"
        }
      ],
      "name": "fundIdea",
      "outputs": [],
      "stateMutability": "payable",
      "type": "function"
    },
    {
      "inputs": [
        {
          "internalType": "uint256",
          "name": "tokenId",
          "type": "uint256"
        }
      ],
      "name": "getApproved",
      "outputs": [
        {
          "internalType": "address",
          "name": "",
          "type": "address"
        }
      ],
      "stateMutability": "view",
      "type": "function"
    },
    {
      "inputs": [
        {
          "internalType": "uint256",
          "name": "tokenId",
          "type": "uint256"
        },
        {
          "internalType": "address",
          "name": "funder",
          "type": "address"
        }
      ],
      "name": "getFunderInfo",
      "outputs": [
        {
          "internalType": "uint256",
          "name": "amount",
          "type": "uint256"
        }
      ],
      "stateMutability": "view",
      "type": "function"
    },
    {
      "inputs": [
        {
          "internalType": "uint256",
          "name": "tokenId",
          "type": "uint256"
        }
      ],
      "name": "getFunders",
      "outputs": [
        {
          "internalType": "address[]",
          "name": "",
          "type": "address[]"
        }
      ],
      "stateMutability": "view",
      "type": "function"
    },
    {
      "inputs": [
        {
          "internalType": "uint256",
          "name": "tokenId",
          "type": "uint256"
        }
      ],
      "name": "getIdea",
      "outputs": [
        {
          "internalType": "address",
          "name": "creator",
          "type": "address"
        },
        {
          "internalType": "string",
          "name": "title",
          "type": "string"
        },
        {
          "internalType": "string",
          "name": "description",
          "type": "string"
        },
        {
          "internalType": "string",
          "name": "category",
          "type": "string"
        },
        {
          "internalType": "uint256",
          "name": "createdAt",
          "type": "uint256"
        },
        {
          "internalType": "uint256",
          "name": "royaltyPercentage",
          "type": "uint256"
        },
        {
          "internalType": "bool",
          "name": "isActive",
          "type": "bool"
        },
        {
          "internalType": "uint256",
          "name": "totalFunding",
          "type": "uint256"
        },
        {
          "internalType": "uint256",
          "name": "funderCount",
          "type": "uint256"
        }
      ],
      "stateMutability": "view",
      "type": "function"
    },
    {
      "inputs": [
        {
          "internalType": "uint256",
          "name": "",
          "type": "uint256"
        }
      ],
      "name": "ideas",
      "outputs": [
        {
          "internalType": "uint256",
          "name": "tokenId",
          "type": "uint256"
        },
        {
          "internalType": "address",
          "name": "creator",
          "type": "address"
        },
        {
          "internalType": "string",
          "name": "title",
          "type": "string"
        },
        {
          "internalType": "string",
          "name": "description",
          "type": "string"
        },
        {
          "internalType": "string",
          "name": "category",
          "type": "string"
        },
        {
          "internalType": "uint256",
          "name": "createdAt",
          "type": "uint256"
        },
        {
          "internalType": "uint256",
          "name": "royaltyPercentage",
          "type": "uint256"
        },
        {
          "internalType": "bool",
          "name": "isActive",
          "type": "bool"
        },
        {
          "internalType": "uint256",
          "name": "totalFunding",
          "type": "uint256"
        }
      ],
      "stateMutability": "view",
      "type": "function"
    },
    {
      "inputs": [
        {
          "internalType": "address",
          "name": "owner",
          "type": "address"
        },
        {
          "internalType": "address",
          "name": "operator",
          "type": "address"
        }
      ],
      "name": "isApprovedForAll",
      "outputs": [
        {
          "internalType": "bool",
          "name": "",
          "type": "bool"
        }
      ],
      "stateMutability": "view",
      "type": "function"
    },
    {
      "inputs": [],
      "name": "name",
      "outputs": [
        {
          "internalType": "string",
          "name": "",
          "type": "string"
        }
      ],
      "stateMutability": "view",
      "type": "function"
    },
    {
      "inputs": [],
      "name": "owner",
      "outputs": [
        {
          "internalType": "address",
          "name": "",
          "type": "address"
        }
      ],
      "stateMutability": "view",
      "type": "function"
    },
    {
      "inputs": [
        {
          "internalType": "uint256",
          "name": "tokenId",
          "type": "uint256"
        }
      ],
      "name": "ownerOf",
      "outputs": [
        {
          "internalType": "address",
          "name": "",
          "type": "address"
        }
      ],
      "stateMutability": "view",
      "type": "function"
    },
    {
      "inputs": [],
      "name": "renounceOwnership",
      "outputs": [],
      "stateMutability": "nonpayable",
      "type": "function"
    },
    {
      "inputs": [
        {
          "internalType": "address",
          "name": "from",
          "type": "address"
        },
        {
          "internalType": "address",
          "name": "to",
          "type": "address"
        },
        {
          "internalType": "uint256",
          "name": "tokenId",
          "type": "uint256"
        }
      ],
      "name": "safeTransferFrom",
      "outputs": [],
      "stateMutability": "nonpayable",
      "type": "function"
    },
    {
      "inputs": [
        {
          "internalType": "address",
          "name": "from",
          "type": "address"
        },
        {
          "internalType": "address",
          "name": "to",
          "type": "address"
        },
        {
          "internalType": "uint256",
          "name": "tokenId",
          "type": "uint256"
        },
        {
          "internalType": "bytes",
          "name": "data",
          "type": "bytes"
        }
      ],
      "name": "safeTransferFrom",
      "outputs": [],
      "stateMutability": "nonpayable",
      "type": "function"
    },
    {
      "inputs": [
        {
          "internalType": "address",
          "name": "operator",
          "type": "address"
        },
        {
          "internalType": "bool",
          "name": "approved",
          "type": "bool"
        }
      ],
      "name": "setApprovalForAll",
      "outputs": [],
      "stateMutability": "nonpayable",
      "type": "function"
    },
    {
      "inputs": [
        {
          "internalType": "bytes4",
          "name": "interfaceId",
          "type": "bytes4"
        }
      ],
      "name": "supportsInterface",
      "outputs": [
        {
          "internalType": "bool",
          "name": "",
          "type": "bool"
        }
      ],
      "stateMutability": "view",
      "type": "function"
    },
    {
      "inputs": [],
      "name": "symbol",
      "outputs": [
        {
          "internalType": "string",
          "name": "",
          "type": "string"
        }
      ],
      "stateMutability": "view",
      "type": "function"
    },
    {
      "inputs": [
        {
          "internalType": "uint256",
          "name": "tokenId",
          "type": "uint256"
        }
      ],
      "name": "toggleIdeaStatus",
      "outputs": [],
      "stateMutability": "nonpayable",
      "type": "function"
    },
    {
      "inputs": [
        {
          "internalType": "uint256",
          "name": "tokenId",
          "type": "uint256"
        }
      ],
      "name": "tokenURI",
      "outputs": [
        {
          "internalType": "string",
          "name": "",
          "type": "string"
        }
      ],
      "stateMutability": "view",
      "type": "function"
    },
    {
      "inputs": [
        {
          "internalType": "address",
          "name": "from",
          "type": "address"
        },
        {
          "internalType": "address",
          "name": "to",
          "type": "address"
        },
        {
          "internalType": "uint256",
          "name": "tokenId",
          "type": "uint256"
        }
      ],
      "name": "transferFrom",
      "outputs": [],
      "stateMutability": "nonpayable",
      "type": "function"
    },
    {
      "inputs": [
        {
          "internalType": "address",
          "name": "newOwner",
          "type": "address"
        }
      ],
      "name": "transferOwnership",
      "outputs": [],
      "stateMutability": "nonpayable",
      "type": "function"
    }
  ],
  "bytecode": "0x60806040523480156200001157600080fd5b506040518060400160405280600d81526020016c466f756e646c696e674964656160981b81525060405180604001604052806005815260200164464944454160d81b815250816000908162000067919062000199565b50600162000076828262000199565b505050620000936200008d6200009e60201b60201c565b620000a2565b600160085562000265565b3390565b600780546001600160a01b038381166001600160a01b0319831681179093556040519116919082907f8be0079c531659141344cd1fd0a4f28419497f9722a3daafe3b4186f6b6457e090600090a35050565b634e487b7160e01b600052604160045260246000fd5b600181811c908216806200011f57607f821691505b6020821081036200014057634e487b7160e01b600052602260045260246000fd5b50919050565b601f8211156200019457600081815260208120601f850160051c810160208610156200016f5750805b601f850160051c820191505b8181101562000190578281556001016200017b565b5050505b505050565b81516001600160401b03811115620001b557620001b5620000f4565b620001cd81620001c684546200010a565b8462000146565b602080601f831160018114620002055760008415620001ec5750858301515b600019600386901b1c1916600185901b17855562000190565b600085815260208120601f198616915b82811015620002365788860151825594840194600190910190840162000215565b5085821015620002555787850151600019600388901b60f8161c191681555b5050505050600190811b01905550565b612a0b80620002756000396000f3fe60806040526004361061019c5760003560e01c80638da5cb5b116100ec578063c87b56dd1161008a578063db2e21bc11610064578063db2e21bc146104c3578063e1281d1a146104d8578063e985e9c5146104f8578063f2fde38b1461054157600080fd5b8063c87b56dd14610475578063ccdd003514610495578063d2a7d38a146104a857600080fd5b8063a22cb465116100c6578063a22cb465146103f5578063ab35daed14610415578063b07cb36514610435578063b88d4fde1461045557600080fd5b80638da5cb5b1461038d57806395b53837146103ab57806395d89b41146103e057600080fd5b80633a7b6c741161015957806344de6b2f1161013357806344de6b2f146103035780636352211e1461033857806370a0823114610358578063715018a61461037857600080fd5b80633a7b6c74146102925780633c404a9c146102bf57806342842e0e146102e357600080fd5b806301ffc9a7146101a157806306fdde03146101d6578063081812fc146101f8578063095ea7b3146102305780630a9afcc31461025257806323b872dd14610272575b600080fd5b3480156101ad57600080fd5b506101c16101bc3660046121bb565b610561565b60405190151581526020015b60405180910390f35b3480156101e257600080fd5b506101eb610572565b6040516101cd9190612228565b34801561020457600080fd5b5061021861021336600461223b565b610604565b6040516001600160a01b0390911681526020016101cd565b34801561023c57600080fd5b5061025061024b366004612270565b61062b565b005b34801561025e57600080fd5b5061025061026d36600461223b565b610745565b34801561027e57600080fd5b5061025061028d36600461229a565b61082a565b34801561029e57600080fd5b506102b26102ad36600461223b565b61085b565b6040516101cd91906122d6565b3480156102cb57600080fd5b506102d56101f481565b6040519081526020016101cd565b3480156102ef57600080fd5b506102506102fe36600461229a565b6108ef565b34801561030f57600080fd5b5061032361031e36600461223b565b61090a565b6040516101cd99989796959493929190612323565b34801561034457600080fd5b5061021861035336600461223b565b610b58565b34801561036457600080fd5b506102d561037336600461239e565b610bb8565b34801561038457600080fd5b50610250610c3e565b34801561039957600080fd5b506007546001600160a01b0316610218565b3480156103b757600080fd5b506103cb6103c636600461223b565b610c52565b6040516101cd999897969594939291906123b9565b3480156103ec57600080fd5b506101eb610e42565b34801561040157600080fd5b50610250610410366004612436565b610e51565b34801561042157600080fd5b506102d5610430366004612472565b610e60565b34801561044157600080fd5b5061025061045036600461223b565b610eb3565b34801561046157600080fd5b5061025061047036600461252a565b6110c5565b34801561048157600080fd5b506101eb61049036600461223b565b6110fd565b6102506104a336600461223b565b611108565b3480156104b457600080fd5b506102d5662386f26fc1000081565b3480156104cf57600080fd5b50610250611313565b3480156104e457600080fd5b506102d56104f33660046125c6565b6113c3565b34801561050457600080fd5b506101c1610513366004612667565b6001600160a01b03918216600090815260056020908152604080832093909416825291909152205460ff1690565b34801561054d57600080fd5b5061025061055c36600461239e565b61159c565b600061056c82611612565b92915050565b60606000805461058190612691565b80601f01602080910402602001604051908101604052809291908181526020018280546105ad90612691565b80156105fa5780601f106105cf576101008083540402835291602001916105fa565b820191906000526020600020905b8154815290600101906020018083116105dd57829003601f168201915b5050505050905090565b600061060f82611637565b506000908152600460205260409020546001600160a01b031690565b600061063682610b58565b9050806001600160a01b0316836001600160a01b0316036106a85760405162461bcd60e51b815260206004820152602160248201527f4552433732313a20617070726f76616c20746f2063757272656e74206f776e656044820152603960f91b60648201526084015b60405180910390fd5b336001600160a01b03821614806106c457506106c48133610513565b6107365760405162461bcd60e51b815260206004820152603d60248201527f4552433732313a20617070726f76652063616c6c6572206973206e6f7420746f60448201527f6b656e206f776e6572206f7220617070726f76656420666f7220616c6c000000606482015260840161069f565b6107408383611687565b505050565b61074e816116f5565b61076a5760405162461bcd60e51b815260040161069f906126cb565b3361077482610b58565b6001600160a01b0316146107ca5760405162461bcd60e51b815260206004820152601e60248201527f4f6e6c792063726561746f722063616e20746f67676c65207374617475730000604482015260640161069f565b6000818152600a6020908152604091829020600701805460ff8082161560ff199092168217909255925192161515825282917fcc3494aad08a6e77cb2bec77538b09226f5a2c1a74573c23e9facc47f2dace32910160405180910390a250565b6108343382611712565b6108505760405162461bcd60e51b815260040161069f906126f8565b610740838383611790565b6060610866826116f5565b6108825760405162461bcd60e51b815260040161069f906126cb565b6000828152600a6020908152604091829020600901805483518184028101840190945280845290918301828280156108e357602002820191906000526020600020905b81546001600160a01b031681526001909101906020018083116108c5575b50505050509050919050565b610740838383604051806020016040528060008152506110c5565b6000606080606060008060008060006109228a6116f5565b61093e5760405162461bcd60e51b815260040161069f906126cb565b60008a8152600a602052604090206001810154600582015460068301546007840154600885015460098601546002870180546001600160a01b03909716969095600389019560048a01959194909360ff9092169290919088906109a090612691565b80601f01602080910402602001604051908101604052809291908181526020018280546109cc90612691565b8015610a195780601f106109ee57610100808354040283529160200191610a19565b820191906000526020600020905b8154815290600101906020018083116109fc57829003601f168201915b50505050509750868054610a2c90612691565b80601f0160208091040260200160405190810160405280929190818152602001828054610a5890612691565b8015610aa55780601f10610a7a57610100808354040283529160200191610aa5565b820191906000526020600020905b815481529060010190602001808311610a8857829003601f168201915b50505050509650858054610ab890612691565b80601f0160208091040260200160405190810160405280929190818152602001828054610ae490612691565b8015610b315780601f10610b0657610100808354040283529160200191610b31565b820191906000526020600020905b815481529060010190602001808311610b1457829003601f168201915b50505050509550995099509950995099509950995099509950509193959799909294969850565b6000818152600260205260408120546001600160a01b03168061056c5760405162461bcd60e51b8152602060048201526018602482015277115490cdcc8c4e881a5b9d985b1a59081d1bdad95b88125160421b604482015260640161069f565b60006001600160a01b038216610c225760405162461bcd60e51b815260206004820152602960248201527f4552433732313a2061646472657373207a65726f206973206e6f7420612076616044820152683634b21037bbb732b960b91b606482015260840161069f565b506001600160a01b031660009081526003602052604090205490565b610c466118f4565b610c50600061194e565b565b600a6020526000908152604090208054600182015460028301805492936001600160a01b0390921692610c8490612691565b80601f0160208091040260200160405190810160405280929190818152602001828054610cb090612691565b8015610cfd5780601f10610cd257610100808354040283529160200191610cfd565b820191906000526020600020905b815481529060010190602001808311610ce057829003601f168201915b505050505090806003018054610d1290612691565b80601f0160208091040260200160405190810160405280929190818152602001828054610d3e90612691565b8015610d8b5780601f10610d6057610100808354040283529160200191610d8b565b820191906000526020600020905b815481529060010190602001808311610d6e57829003601f168201915b505050505090806004018054610da090612691565b80601f0160208091040260200160405190810160405280929190818152602001828054610dcc90612691565b8015610e195780601f10610dee57610100808354040283529160200191610e19565b820191906000526020600020905b815481529060010190602001808311610dfc57829003601f168201915b5050506005840154600685015460078601546008909601549495919490935060ff909116915089565b60606001805461058190612691565b610e5c3383836119a0565b5050565b6000610e6b836116f5565b610e875760405162461bcd60e51b815260040161069f906126cb565b506000828152600a602081815260408084206001600160a01b0386168552909201905290205492915050565b610ebb611a6e565b610ec4816116f5565b610ee05760405162461bcd60e51b815260040161069f906126cb565b6000818152600a6020526040902060080154610f3e5760405162461bcd60e51b815260206004820152601860248201527f4e6f2066756e64696e6720746f20646973747269627574650000000000000000604482015260640161069f565b6000818152600a602052604081206006810154600882015491929161271091610f669161275b565b610f709190612772565b905060008111610fc25760405162461bcd60e51b815260206004820152601a60248201527f4e6f20726f79616c7469657320746f2064697374726962757465000000000000604482015260640161069f565b60006008830181905560018301546040516001600160a01b039091169083908381818185875af1925050503d8060008114611019576040519150601f19603f3d011682016040523d82523d6000602084013e61101e565b606091505b505090508061106f5760405162461bcd60e51b815260206004820152601760248201527f526f79616c7479207472616e73666572206661696c6564000000000000000000604482015260640161069f565b60018301546040518381526001600160a01b039091169085907fff50aeaf5513a2bfcf5c38af0d681d05e9a00cd91cc42ab2e143549595e5f1729060200160405180910390a35050506110c26001600855565b50565b6110cf3383611712565b6110eb5760405162461bcd60e51b815260040161069f906126f8565b6110f784848484611ac7565b50505050565b606061056c82611afa565b611110611a6e565b611119816116f5565b6111355760405162461bcd60e51b815260040161069f906126cb565b6000818152600a602052604090206007015460ff1661118b5760405162461bcd60e51b815260206004820152601260248201527149646561206973206e6f742061637469766560701b604482015260640161069f565b662386f26fc100003410156111db5760405162461bcd60e51b815260206004820152601660248201527546756e64696e6720616d6f756e7420746f6f206c6f7760501b604482015260640161069f565b6000818152600a60205260409020600101546001600160a01b031633036112445760405162461bcd60e51b815260206004820152601c60248201527f43726561746f722063616e6e6f742066756e64206f776e206964656100000000604482015260640161069f565b6000818152600a6020818152604080842033855292830190915282205490910361129057600981018054600181018255600091825260209091200180546001600160a01b031916331790555b336000908152600a82016020526040812080543492906112b1908490612794565b92505081905550348160080160008282546112cc9190612794565b9091555050604051348152339083907f359f0e67d3d9fef460bb42e82dc5f5e7ff05c407413df528962a4080ec29efbc9060200160405180910390a3506110c26001600855565b61131b6118f4565b600061132f6007546001600160a01b031690565b6001600160a01b03164760405160006040518083038185875af1925050503d8060008114611379576040519150601f19603f3d011682016040523d82523d6000602084013e61137e565b606091505b50509050806110c25760405162461bcd60e51b815260206004820152601160248201527015da5d1a191c985dd85b0819985a5b1959607a1b604482015260640161069f565b60008085511161140d5760405162461bcd60e51b81526020600482015260156024820152745469746c652063616e6e6f7420626520656d70747960581b604482015260640161069f565b600084511161145e5760405162461bcd60e51b815260206004820152601b60248201527f4465736372697074696f6e2063616e6e6f7420626520656d7074790000000000604482015260640161069f565b60008351116114af5760405162461bcd60e51b815260206004820152601860248201527f43617465676f72792063616e6e6f7420626520656d7074790000000000000000604482015260640161069f565b6114bd600980546001019055565b60006114c860095490565b90506114d43382611c02565b6114de8184611c1c565b6000818152600a602052604090208181556001810180546001600160a01b031916331790556002810161151188826127f5565b506003810161152087826127f5565b506004810161152f86826127f5565b504260058201556101f4600682015560078101805460ff1916600117905560006008820155604051339083907f4dcda780d773b5f500d7f183e44c65af32b2d8a0fb4cf36822e10d4f6b9b38f890611588908b90612228565b60405180910390a35090505b949350505050565b6115a46118f4565b6001600160a01b0381166116095760405162461bcd60e51b815260206004820152602660248201527f4f776e61626c653a206e6577206f776e657220697320746865207a65726f206160448201526564647265737360d01b606482015260840161069f565b6110c28161194e565b60006001600160e01b03198216632483248360e11b148061056c575061056c82611cd8565b611640816116f5565b6110c25760405162461bcd60e51b8152602060048201526018602482015277115490cdcc8c4e881a5b9d985b1a59081d1bdad95b88125160421b604482015260640161069f565b600081815260046020526040902080546001600160a01b0319166001600160a01b03841690811790915581906116bc82610b58565b6001600160a01b03167f8c5be1e5ebec7d5bd14f71427d1e84f3dd0314c0f7b2291e5b200ac8c7c3b92560405160405180910390a45050565b6000908152600260205260409020546001600160a01b0316151590565b60008061171e83610b58565b9050806001600160a01b0316846001600160a01b0316148061176557506001600160a01b0380821660009081526005602090815260408083209388168352929052205460ff165b806115945750836001600160a01b031661177e84610604565b6001600160a01b031614949350505050565b826001600160a01b03166117a382610b58565b6001600160a01b0316146117c95760405162461bcd60e51b815260040161069f906128b5565b6001600160a01b03821661182b5760405162461bcd60e51b8152602060048201526024808201527f4552433732313a207472616e7366657220746f20746865207a65726f206164646044820152637265737360e01b606482015260840161069f565b826001600160a01b031661183e82610b58565b6001600160a01b0316146118645760405162461bcd60e51b815260040161069f906128b5565b600081815260046020908152604080832080546001600160a01b03199081169091556001600160a01b0387811680865260038552838620805460001901905590871680865283862080546001019055868652600290945282852080549092168417909155905184937fddf252ad1be2c89b69c2b068fc378daa952ba7f163c4a11628f55a4df523b3ef91a4505050565b6007546001600160a01b03163314610c505760405162461bcd60e51b815260206004820181905260248201527f4f776e61626c653a2063616c6c6572206973206e6f7420746865206f776e6572604482015260640161069f565b600780546001600160a01b038381166001600160a01b0319831681179093556040519116919082907f8be0079c531659141344cd1fd0a4f28419497f9722a3daafe3b4186f6b6457e090600090a35050565b816001600160a01b0316836001600160a01b031603611a015760405162461bcd60e51b815260206004820152601960248201527f4552433732313a20617070726f766520746f2063616c6c657200000000000000604482015260640161069f565b6001600160a01b03838116600081815260056020908152604080832094871680845294825291829020805460ff191686151590811790915591519182527f17307eab39ab6107e8899845ad3d59bd9653f200f220920489ca2b5937696c31910160405180910390a3505050565b600260085403611ac05760405162461bcd60e51b815260206004820152601f60248201527f5265656e7472616e637947756172643a207265656e7472616e742063616c6c00604482015260640161069f565b6002600855565b611ad2848484611790565b611ade84848484611d28565b6110f75760405162461bcd60e51b815260040161069f906128fa565b6060611b0582611637565b60008281526006602052604081208054611b1e90612691565b80601f0160208091040260200160405190810160405280929190818152602001828054611b4a90612691565b8015611b975780601f10611b6c57610100808354040283529160200191611b97565b820191906000526020600020905b815481529060010190602001808311611b7a57829003601f168201915b505050505090506000611bb560408051602081019091526000815290565b90508051600003611bc7575092915050565b815115611bf9578082604051602001611be192919061294c565b60405160208183030381529060405292505050919050565b61159484611e26565b610e5c828260405180602001604052806000815250611e9a565b611c25826116f5565b611c885760405162461bcd60e51b815260206004820152602e60248201527f45524337323155524953746f726167653a2055524920736574206f66206e6f6e60448201526d32bc34b9ba32b73a103a37b5b2b760911b606482015260840161069f565b6000828152600660205260409020611ca082826127f5565b506040518281527ff8e1a15aba9398e019f0b49df1a4fde98ee17ae345cb5f6b5e2c27f5033e8ce79060200160405180910390a15050565b60006001600160e01b031982166380ac58cd60e01b1480611d0957506001600160e01b03198216635b5e139f60e01b145b8061056c57506301ffc9a760e01b6001600160e01b031983161461056c565b60006001600160a01b0384163b15611e1e57604051630a85bd0160e11b81526001600160a01b0385169063150b7a0290611d6c90339089908890889060040161297b565b6020604051808303816000875af1925050508015611da7575060408051601f3d908101601f19168201909252611da4918101906129b8565b60015b611e04573d808015611dd5576040519150601f19603f3d011682016040523d82523d6000602084013e611dda565b606091505b508051600003611dfc5760405162461bcd60e51b815260040161069f906128fa565b805181602001fd5b6001600160e01b031916630a85bd0160e11b149050611594565b506001611594565b6060611e3182611637565b6000611e4860408051602081019091526000815290565b90506000815111611e685760405180602001604052806000815250611e93565b80611e7284611ecd565b604051602001611e8392919061294c565b6040516020818303038152906040525b9392505050565b611ea48383611f60565b611eb16000848484611d28565b6107405760405162461bcd60e51b815260040161069f906128fa565b60606000611eda836120cd565b600101905060008167ffffffffffffffff811115611efa57611efa61249e565b6040519080825280601f01601f191660200182016040528015611f24576020820181803683370190505b5090508181016020015b600019016f181899199a1a9b1b9c1cb0b131b232b360811b600a86061a8153600a8504945084611f2e57509392505050565b6001600160a01b038216611fb65760405162461bcd60e51b815260206004820181905260248201527f4552433732313a206d696e7420746f20746865207a65726f2061646472657373604482015260640161069f565b611fbf816116f5565b1561200c5760405162461bcd60e51b815260206004820152601c60248201527f4552433732313a20746f6b656e20616c7265616479206d696e74656400000000604482015260640161069f565b612015816116f5565b156120625760405162461bcd60e51b815260206004820152601c60248201527f4552433732313a20746f6b656e20616c7265616479206d696e74656400000000604482015260640161069f565b6001600160a01b038216600081815260036020908152604080832080546001019055848352600290915280822080546001600160a01b0319168417905551839291907fddf252ad1be2c89b69c2b068fc378daa952ba7f163c4a11628f55a4df523b3ef908290a45050565b60008072184f03e93ff9f4daa797ed6e38ed64bf6a1f0160401b831061210c5772184f03e93ff9f4daa797ed6e38ed64bf6a1f0160401b830492506040015b6d04ee2d6d415b85acef81000000008310612138576d04ee2d6d415b85acef8100000000830492506020015b662386f26fc10000831061215657662386f26fc10000830492506010015b6305f5e100831061216e576305f5e100830492506008015b612710831061218257612710830492506004015b60648310612194576064830492506002015b600a831061056c5760010192915050565b6001600160e01b0319811681146110c257600080fd5b6000602082840312156121cd57600080fd5b8135611e93816121a5565b60005b838110156121f35781810151838201526020016121db565b50506000910152565b600081518084526122148160208601602086016121d8565b601f01601f19169290920160200192915050565b602081526000611e9360208301846121fc565b60006020828403121561224d57600080fd5b5035919050565b80356001600160a01b038116811461226b57600080fd5b919050565b6000806040838503121561228357600080fd5b61228c83612254565b946020939093013593505050565b6000806000606084860312156122af57600080fd5b6122b884612254565b92506122c660208501612254565b9150604084013590509250925092565b6020808252825182820181905260009190848201906040850190845b818110156123175783516001600160a01b0316835292840192918401916001016122f2565b50909695505050505050565b6001600160a01b038a168152610120602082018190526000906123488382018c6121fc565b9050828103604084015261235c818b6121fc565b90508281036060840152612370818a6121fc565b6080840198909852505060a081019490945291151560c084015260e083015261010090910152949350505050565b6000602082840312156123b057600080fd5b611e9382612254565b8981526001600160a01b0389166020820152610120604082018190526000906123e48382018b6121fc565b905082810360608401526123f8818a6121fc565b9050828103608084015261240c81896121fc565b60a0840197909752505060c081019390935290151560e08301526101009091015295945050505050565b6000806040838503121561244957600080fd5b61245283612254565b91506020830135801515811461246757600080fd5b809150509250929050565b6000806040838503121561248557600080fd5b8235915061249560208401612254565b90509250929050565b634e487b7160e01b600052604160045260246000fd5b600067ffffffffffffffff808411156124cf576124cf61249e565b604051601f8501601f19908116603f011681019082821181831017156124f7576124f761249e565b8160405280935085815286868601111561251057600080fd5b858560208301376000602087830101525050509392505050565b6000806000806080858703121561254057600080fd5b61254985612254565b935061255760208601612254565b925060408501359150606085013567ffffffffffffffff81111561257a57600080fd5b8501601f8101871361258b57600080fd5b61259a878235602084016124b4565b91505092959194509250565b600082601f8301126125b757600080fd5b611e93838335602085016124b4565b600080600080608085870312156125dc57600080fd5b843567ffffffffffffffff808211156125f457600080fd5b612600888389016125a6565b9550602087013591508082111561261657600080fd5b612622888389016125a6565b9450604087013591508082111561263857600080fd5b612644888389016125a6565b9350606087013591508082111561265a57600080fd5b5061259a878288016125a6565b6000806040838503121561267a57600080fd5b61268383612254565b915061249560208401612254565b600181811c908216806126a557607f821691505b6020821081036126c557634e487b7160e01b600052602260045260246000fd5b50919050565b6020808252601390820152721259195848191bd95cc81b9bdd08195e1a5cdd606a1b604082015260600190565b6020808252602d908201527f4552433732313a2063616c6c6572206973206e6f7420746f6b656e206f776e6560408201526c1c881bdc88185c1c1c9bdd9959609a1b606082015260800190565b634e487b7160e01b600052601160045260246000fd5b808202811582820484141761056c5761056c612745565b60008261278f57634e487b7160e01b600052601260045260246000fd5b500490565b8082018082111561056c5761056c612745565b601f82111561074057600081815260208120601f850160051c810160208610156127ce5750805b601f850160051c820191505b818110156127ed578281556001016127da565b505050505050565b815167ffffffffffffffff81111561280f5761280f61249e565b6128238161281d8454612691565b846127a7565b602080601f83116001811461285857600084156128405750858301515b600019600386901b1c1916600185901b1785556127ed565b600085815260208120601f198616915b8281101561288757888601518255948401946001909101908401612868565b50858210156128a55787850151600019600388901b60f8161c191681555b5050505050600190811b01905550565b60208082526025908201527f4552433732313a207472616e736665722066726f6d20696e636f72726563742060408201526437bbb732b960d91b606082015260800190565b60208082526032908201527f4552433732313a207472616e7366657220746f206e6f6e20455243373231526560408201527131b2b4bb32b91034b6b83632b6b2b73a32b960711b606082015260800190565b6000835161295e8184602088016121d8565b8351908301906129728183602088016121d8565b01949350505050565b6001600160a01b03858116825284166020820152604081018390526080606082018190526000906129ae908301846121fc565b9695505050505050565b6000602082840312156129ca57600080fd5b8151611e93816121a556fea26469706673582212207941c3bb1a2b2e5e38e1e3f339ad86f82b5f360cb375cba967fd57c8373eaa1564736f6c63430008140033",
  "linkReferences": {},
  "deployedLinkReferences": {}
}