{
  "_format": "hh-sol-artifact-1",
  "contractName": "FoundlingProject",
  "sourceName": "src/FoundlingProject.sol",
  "abi": [
    {
      "inputs": [
        {
          "internalType": "address",
          "name": "_ideaContract",
          "type": "address"
        }
      ],
      "stateMutability": "nonpayable",
      "type": "constructor"
    },
    {
      "anonymous": false,
      "inputs": [
        {
          "indexed": true,
          "internalType": "uint256",
          "name": "projectId",
          "type": "uint256"
        },
        {
          "indexed": true,
          "internalType": "address",
          "name": "executor",
          "type": "address"
        }
      ],
      "name": "ExecutorAssigned",
      "type": "event"
    },
    {
      "anonymous": false,
      "inputs": [
        {
          "indexed": true,
          "internalType": "uint256",
          "name": "projectId",
          "type": "uint256"
        },
        {
          "indexed": true,
          "internalType": "uint256",
          "name": "milestoneId",
          "type": "uint256"
        },
        {
          "indexed": false,
          "internalType": "string",
          "name": "title",
          "type": "string"
        },
        {
          "indexed": false,
          "internalType": "uint256",
          "name": "amount",
          "type": "uint256"
        }
      ],
      "name": "MilestoneAdded",
      "type": "event"
    },
    {
      "anonymous": false,
      "inputs": [
        {
          "indexed": true,
          "internalType": "uint256",
          "name": "projectId",
          "type": "uint256"
        },
        {
          "indexed": true,
          "internalType": "uint256",
          "name": "milestoneId",
          "type": "uint256"
        },
        {
          "indexed": true,
          "internalType": "address",
          "name": "executor",
          "type": "address"
        }
      ],
      "name": "MilestoneCompleted",
      "type": "event"
    },
    {
      "anonymous": false,
      "inputs": [
        {
          "indexed": true,
          "internalType": "uint256",
          "name": "projectId",
          "type": "uint256"
        },
        {
          "indexed": true,
          "internalType": "uint256",
          "name": "milestoneId",
          "type": "uint256"
        },
        {
          "indexed": true,
          "internalType": "address",
          "name": "executor",
          "type": "address"
        },
        {
          "indexed": false,
          "internalType": "uint256",
          "name": "amount",
          "type": "uint256"
        }
      ],
      "name": "MilestonePaid",
      "type": "event"
    },
    {
      "anonymous": false,
      "inputs": [
        {
          "indexed": true,
          "internalType": "address",
          "name": "previousOwner",
          "type": "address"
        },
        {
          "indexed": true,
          "internalType": "address",
          "name": "newOwner",
          "type": "address"
        }
      ],
      "name": "OwnershipTransferred",
      "type": "event"
    },
    {
      "anonymous": false,
      "inputs": [
        {
          "indexed": false,
          "internalType": "address",
          "name": "account",
          "type": "address"
        }
      ],
      "name": "Paused",
      "type": "event"
    },
    {
      "anonymous": false,
      "inputs": [
        {
          "indexed": true,
          "internalType": "uint256",
          "name": "projectId",
          "type": "uint256"
        },
        {
          "indexed": true,
          "internalType": "uint256",
          "name": "ideaTokenId",
          "type": "uint256"
        },
        {
          "indexed": true,
          "internalType": "address",
          "name": "creator",
          "type": "address"
        }
      ],
      "name": "ProjectCreated",
      "type": "event"
    },
    {
      "anonymous": false,
      "inputs": [
        {
          "indexed": true,
          "internalType": "uint256",
          "name": "projectId",
          "type": "uint256"
        },
        {
          "indexed": false,
          "internalType": "enum FoundlingProject.ProjectStatus",
          "name": "status",
          "type": "uint8"
        }
      ],
      "name": "ProjectStatusChanged",
      "type": "event"
    },
    {
      "anonymous": false,
      "inputs": [
        {
          "indexed": false,
          "internalType": "address",
          "name": "account",
          "type": "address"
        }
      ],
      "name": "Unpaused",
      "type": "event"
    },
    {
      "inputs": [
        {
          "internalType": "uint256",
          "name": "projectId",
          "type": "uint256"
        },
        {
          "internalType": "string",
          "name": "title",
          "type": "string"
        },
        {
          "internalType": "string",
          "name": "description",
          "type": "string"
        },
        {
          "internalType": "uint256",
          "name": "amount",
          "type": "uint256"
        },
        {
          "internalType": "uint256",
          "name": "deadline",
          "type": "uint256"
        }
      ],
      "name": "addMilestone",
      "outputs": [],
      "stateMutability": "nonpayable",
      "type": "function"
    },
    {
      "inputs": [
        {
          "internalType": "uint256",
          "name": "projectId",
          "type": "uint256"
        },
        {
          "internalType": "address",
          "name": "executor",
          "type": "address"
        }
      ],
      "name": "assignExecutor",
      "outputs": [],
      "stateMutability": "nonpayable",
      "type": "function"
    },
    {
      "inputs": [
        {
          "internalType": "uint256",
          "name": "projectId",
          "type": "uint256"
        }
      ],
      "name": "cancelProject",
      "outputs": [],
      "stateMutability": "nonpayable",
      "type": "function"
    },
    {
      "inputs": [
        {
          "internalType": "uint256",
          "name": "projectId",
          "type": "uint256"
        },
        {
          "internalType": "uint256",
          "name": "milestoneId",
          "type": "uint256"
        }
      ],
      "name": "completeMilestone",
      "outputs": [],
      "stateMutability": "nonpayable",
      "type": "function"
    },
    {
      "inputs": [
        {
          "internalType": "uint256",
          "name": "ideaTokenId",
          "type": "uint256"
        },
        {
          "internalType": "string",
          "name": "title",
          "type": "string"
        },
        {
          "internalType": "string",
          "name": "description",
          "type": "string"
        },
        {
          "internalType": "uint256",
          "name": "totalBudget",
          "type": "uint256"
        }
      ],
      "name": "createProject",
      "outputs": [
        {
          "internalType": "uint256",
          "name": "",
          "type": "uint256"
        }
      ],
      "stateMutability": "nonpayable",
      "type": "function"
    },
    {
      "inputs": [],
      "name": "emergencyWithdraw",
      "outputs": [],
      "stateMutability": "nonpayable",
      "type": "function"
    },
    {
      "inputs": [
        {
          "internalType": "uint256",
          "name": "projectId",
          "type": "uint256"
        },
        {
          "internalType": "uint256",
          "name": "milestoneId",
          "type": "uint256"
        }
      ],
      "name": "getMilestone",
      "outputs": [
        {
          "internalType": "string",
          "name": "title",
          "type": "string"
        },
        {
          "internalType": "string",
          "name": "description",
          "type": "string"
        },
        {
          "internalType": "uint256",
          "name": "amount",
          "type": "uint256"
        },
        {
          "internalType": "uint256",
          "name": "deadline",
          "type": "uint256"
        },
        {
          "internalType": "bool",
          "name": "isCompleted",
          "type": "bool"
        },
        {
          "internalType": "bool",
          "name": "isPaid",
          "type": "bool"
        },
        {
          "internalType": "address",
          "name": "executor",
          "type": "address"
        },
        {
          "internalType": "uint256",
          "name": "completedAt",
          "type": "uint256"
        }
      ],
      "stateMutability": "view",
      "type": "function"
    },
    {
      "inputs": [
        {
          "internalType": "uint256",
          "name": "projectId",
          "type": "uint256"
        }
      ],
      "name": "getProject",
      "outputs": [
        {
          "internalType": "uint256",
          "name": "ideaTokenId",
          "type": "uint256"
        },
        {
          "internalType": "address",
          "name": "creator",
          "type": "address"
        },
        {
          "internalType": "address",
          "name": "executor",
          "type": "address"
        },
        {
          "internalType": "string",
          "name": "title",
          "type": "string"
        },
        {
          "internalType": "string",
          "name": "description",
          "type": "string"
        },
        {
          "internalType": "uint256",
          "name": "totalBudget",
          "type": "uint256"
        },
        {
          "internalType": "uint256",
          "name": "currentMilestone",
          "type": "uint256"
        },
        {
          "internalType": "uint256",
          "name": "createdAt",
          "type": "uint256"
        },
        {
          "internalType": "enum FoundlingProject.ProjectStatus",
          "name": "status",
          "type": "uint8"
        },
        {
          "internalType": "uint256",
          "name": "milestoneCount",
          "type": "uint256"
        }
      ],
      "stateMutability": "view",
      "type": "function"
    },
    {
      "inputs": [
        {
          "internalType": "uint256",
          "name": "projectId",
          "type": "uint256"
        }
      ],
      "name": "getProjectMilestones",
      "outputs": [
        {
          "internalType": "uint256[]",
          "name": "",
          "type": "uint256[]"
        }
      ],
      "stateMutability": "view",
      "type": "function"
    },
    {
      "inputs": [],
      "name": "ideaContract",
      "outputs": [
        {
          "internalType": "contract FoundlingIdea",
          "name": "",
          "type": "address"
        }
      ],
      "stateMutability": "view",
      "type": "function"
    },
    {
      "inputs": [],
      "name": "owner",
      "outputs": [
        {
          "internalType": "address",
          "name": "",
          "type": "address"
        }
      ],
      "stateMutability": "view",
      "type": "function"
    },
    {
      "inputs": [],
      "name": "pause",
      "outputs": [],
      "stateMutability": "nonpayable",
      "type": "function"
    },
    {
      "inputs": [],
      "name": "paused",
      "outputs": [
        {
          "internalType": "bool",
          "name": "",
          "type": "bool"
        }
      ],
      "stateMutability": "view",
      "type": "function"
    },
    {
      "inputs": [
        {
          "internalType": "uint256",
          "name": "projectId",
          "type": "uint256"
        },
        {
          "internalType": "uint256",
          "name": "milestoneId",
          "type": "uint256"
        }
      ],
      "name": "payMilestone",
      "outputs": [],
      "stateMutability": "payable",
      "type": "function"
    },
    {
      "inputs": [],
      "name": "projectCounter",
      "outputs": [
        {
          "internalType": "uint256",
          "name": "",
          "type": "uint256"
        }
      ],
      "stateMutability": "view",
      "type": "function"
    },
    {
      "inputs": [
        {
          "internalType": "uint256",
          "name": "",
          "type": "uint256"
        }
      ],
      "name": "projects",
      "outputs": [
        {
          "internalType": "uint256",
          "name": "id",
          "type": "uint256"
        },
        {
          "internalType": "uint256",
          "name": "ideaTokenId",
          "type": "uint256"
        },
        {
          "internalType": "address",
          "name": "creator",
          "type": "address"
        },
        {
          "internalType": "address",
          "name": "executor",
          "type": "address"
        },
        {
          "internalType": "string",
          "name": "title",
          "type": "string"
        },
        {
          "internalType": "string",
          "name": "description",
          "type": "string"
        },
        {
          "internalType": "uint256",
          "name": "totalBudget",
          "type": "uint256"
        },
        {
          "internalType": "uint256",
          "name": "currentMilestone",
          "type": "uint256"
        },
        {
          "internalType": "uint256",
          "name": "createdAt",
          "type": "uint256"
        },
        {
          "internalType": "enum FoundlingProject.ProjectStatus",
          "name": "status",
          "type": "uint8"
        }
      ],
      "stateMutability": "view",
      "type": "function"
    },
    {
      "inputs": [],
      "name": "renounceOwnership",
      "outputs": [],
      "stateMutability": "nonpayable",
      "type": "function"
    },
    {
      "inputs": [
        {
          "internalType": "address",
          "name": "newOwner",
          "type": "address"
        }
      ],
      "name": "transferOwnership",
      "outputs": [],
      "stateMutability": "nonpayable",
      "type": "function"
    },
    {
      "inputs": [],
      "name": "unpause",
      "outputs": [],
      "stateMutability": "nonpayable",
      "type": "function"
    }
  ],
  "bytecode": "0x60806040523480156200001157600080fd5b5060405162002482380380620024828339810160408190526200003491620000be565b6200003f336200006e565b60018055600280546001600160a01b03909216610100026001600160a81b0319909216919091179055620000f0565b600080546001600160a01b038381166001600160a01b0319831681178455604051919092169283917f8be0079c531659141344cd1fd0a4f28419497f9722a3daafe3b4186f6b6457e09190a35050565b600060208284031215620000d157600080fd5b81516001600160a01b0381168114620000e957600080fd5b9392505050565b61238280620001006000396000f3fe6080604052600436106101145760003560e01c806380652153116100a0578063db2e21bc11610064578063db2e21bc14610319578063f0f3f2c81461032e578063f2fde38b14610364578063f326206b14610384578063f8a518ed146103a457600080fd5b806380652153146102715780638456cb591461028457806389898ef5146102995780638da5cb5b146102c75780638ed9895c146102e557600080fd5b806352766d80116100e757806352766d80146101cc578063563700d5146101f95780635c975abb1461021957806369c6a1c21461023c578063715018a61461025c57600080fd5b8063107046bd1461011957806324941147146101585780633f4ba83a1461017a57806348721c3c1461018f575b600080fd5b34801561012557600080fd5b50610139610134366004611c4e565b6103ba565b60405161014f9a99989796959493929190611ce5565b60405180910390f35b34801561016457600080fd5b50610178610173366004611c4e565b61052c565b005b34801561018657600080fd5b50610178610631565b34801561019b57600080fd5b506002546101b49061010090046001600160a01b031681565b6040516001600160a01b03909116815260200161014f565b3480156101d857600080fd5b506101ec6101e7366004611c4e565b610643565b60405161014f9190611d66565b34801561020557600080fd5b50610178610214366004611e4d565b610739565b34801561022557600080fd5b5060025460ff16604051901515815260200161014f565b34801561024857600080fd5b50610178610257366004611ee1565b610a73565b34801561026857600080fd5b50610178610c76565b61017861027f366004611f11565b610c88565b34801561029057600080fd5b50610178610fa8565b3480156102a557600080fd5b506102b96102b4366004611f33565b610fb8565b60405190815260200161014f565b3480156102d357600080fd5b506000546001600160a01b03166101b4565b3480156102f157600080fd5b50610305610300366004611f11565b611225565b60405161014f989796959493929190611fa8565b34801561032557600080fd5b50610178611466565b34801561033a57600080fd5b5061034e610349366004611c4e565b611508565b60405161014f9a9998979695949392919061200c565b34801561037057600080fd5b5061017861037f36600461208c565b6116ec565b34801561039057600080fd5b5061017861039f366004611f11565b611762565b3480156103b057600080fd5b506102b960045481565b600360208190526000918252604090912080546001820154600283015493830154600484018054939592946001600160a01b039384169493909216926103ff906120b0565b80601f016020809104026020016040519081016040528092919081815260200182805461042b906120b0565b80156104785780601f1061044d57610100808354040283529160200191610478565b820191906000526020600020905b81548152906001019060200180831161045b57829003601f168201915b50505050509080600501805461048d906120b0565b80601f01602080910402602001604051908101604052809291908181526020018280546104b9906120b0565b80156105065780601f106104db57610100808354040283529160200191610506565b820191906000526020600020905b8154815290600101906020018083116104e957829003601f168201915b505050506006830154600784015460088501546009909501549394919390925060ff168a565b60008181526003602052604090206002015481906001600160a01b031633146105705760405162461bcd60e51b8152600401610567906120ea565b60405180910390fd5b60008281526003602052604081206009015460ff16600481111561059657610596611cad565b146105d65760405162461bcd60e51b815260206004820152601060248201526f283937b532b1ba103737ba1037b832b760811b6044820152606401610567565b600082815260036020819052604091829020600901805460ff191682179055905183917f35872be4c2085eaf9ca9a10d056eefec79968f825846792411ede75f331e9392916106259190612118565b60405180910390a25050565b610639611a2d565b610641611a87565b565b600081815260036020526040812054606091036106725760405162461bcd60e51b81526004016105679061212c565b6000828152600360205260408120600a81015490919067ffffffffffffffff8111156106a0576106a0611daa565b6040519080825280602002602001820160405280156106c9578160200160208202803683370190505b50905060005b600a8301548110156107315782600a0181815481106106f0576106f061215c565b9060005260206000209060070201600001548282815181106107145761071461215c565b60209081029190910101528061072981612188565b9150506106cf565b509392505050565b60008581526003602052604090206002015485906001600160a01b031633146107745760405162461bcd60e51b8152600401610567906120ea565b600160008781526003602052604090206009015460ff16600481111561079c5761079c611cad565b146107e95760405162461bcd60e51b815260206004820152601b60248201527f50726f6a656374206d75737420626520696e2070726f677265737300000000006044820152606401610567565b60008551116108325760405162461bcd60e51b81526020600482015260156024820152745469746c652063616e6e6f7420626520656d70747960581b6044820152606401610567565b600083116108825760405162461bcd60e51b815260206004820152601d60248201527f416d6f756e74206d7573742062652067726561746572207468616e20300000006044820152606401610567565b4282116108d15760405162461bcd60e51b815260206004820152601e60248201527f446561646c696e65206d75737420626520696e207468652066757475726500006044820152606401610567565b6000868152600360205260408120600a8101549091906108f29060016121a1565b604080516101208101825282815260208082018b81529282018a90526060820189905260808201889052600060a0830181905260c0830181905260038701546001600160a01b031660e08401526101008301819052600a870180546001818101835591835292909120835160079093020191825592519394509092839282019061097c9082612203565b50604082015160028201906109919082612203565b50606082015160038201556080820151600482015560a082015160058201805460c085015160e086015161ffff1990921693151561ff0019169390931761010093151584021762010000600160b01b031916620100006001600160a01b039092169190910217905590910151600690910155600a830154610a14906001906122c3565b83600b0160008481526020019081526020016000208190555081897fc67423104bf96f5ca8826913ae711e8c2254e1b2c04af907b2312853ed4cbed28a89604051610a609291906122d6565b60405180910390a3505050505050505050565b60008281526003602052604090206002015482906001600160a01b03163314610aae5760405162461bcd60e51b8152600401610567906120ea565b60008381526003602052604081206009015460ff166004811115610ad457610ad4611cad565b14610b215760405162461bcd60e51b815260206004820152601e60248201527f50726f6a656374206e6f74206f70656e20666f7220657865637574696f6e00006044820152606401610567565b6001600160a01b038216610b775760405162461bcd60e51b815260206004820152601860248201527f496e76616c6964206578656375746f72206164647265737300000000000000006044820152606401610567565b336001600160a01b03831603610bcf5760405162461bcd60e51b815260206004820152601e60248201527f43616e6e6f742061737369676e2073656c66206173206578656375746f7200006044820152606401610567565b600083815260036020819052604080832091820180546001600160a01b0319166001600160a01b0387169081179091556009909201805460ff1916600117905551909185917f39cbe5382b8c2dca66bebe9ccd3f49a1aaa27bff13f650b2dc6297fa38e1901d9190a3827f35872be4c2085eaf9ca9a10d056eefec79968f825846792411ede75f331e93926001604051610c699190612118565b60405180910390a2505050565b610c7e611a2d565b6106416000611ad9565b610c90611b29565b60008281526003602052604090206002015482906001600160a01b03163314610ccb5760405162461bcd60e51b8152600401610567906120ea565b600083815260036020526040812054849103610cf95760405162461bcd60e51b81526004016105679061212c565b6000848152600360209081526040808320868452600b01909152812054859185919003610d385760405162461bcd60e51b8152600401610567906122f8565b6000868152600360209081526040808320888452600b8101909252822054600a820180549293919283908110610d7057610d7061215c565b60009182526020909120600790910201600581015490915060ff16610dd75760405162461bcd60e51b815260206004820152601760248201527f4d696c6573746f6e65206e6f7420636f6d706c657465640000000000000000006044820152606401610567565b6005810154610100900460ff1615610e2a5760405162461bcd60e51b8152602060048201526016602482015275135a5b195cdd1bdb9948185b1c9958591e481c185a5960521b6044820152606401610567565b80600301543414610e7d5760405162461bcd60e51b815260206004820152601860248201527f496e636f7272656374207061796d656e7420616d6f756e7400000000000000006044820152606401610567565b60058101805461ff00191661010017908190556040516000916001600160a01b0362010000909104169034908381818185875af1925050503d8060008114610ee1576040519150601f19603f3d011682016040523d82523d6000602084013e610ee6565b606091505b5050905080610f375760405162461bcd60e51b815260206004820152601760248201527f5061796d656e74207472616e73666572206661696c65640000000000000000006044820152606401610567565b8160050160029054906101000a90046001600160a01b03166001600160a01b0316898b7fddb3c865cd74a12ce51fe8c65974dff5a96dbe02dc9552424777258b5780db8234604051610f8b91815260200190565b60405180910390a45050505050505050610fa460018055565b5050565b610fb0611a2d565b610641611b82565b6002546040516331a9108f60e11b815260009133916101009091046001600160a01b031690636352211e90610ff590899060040190815260200190565b602060405180830381865afa158015611012573d6000803e3d6000fd5b505050506040513d601f19601f82011682018060405250810190611036919061232f565b6001600160a01b0316146110805760405162461bcd60e51b8152602060048201526011602482015270135d5cdd081bdddb881a59195848139195607a1b6044820152606401610567565b60008451116110c95760405162461bcd60e51b81526020600482015260156024820152745469746c652063616e6e6f7420626520656d70747960581b6044820152606401610567565b600083511161111a5760405162461bcd60e51b815260206004820152601b60248201527f4465736372697074696f6e2063616e6e6f7420626520656d70747900000000006044820152606401610567565b6000821161116a5760405162461bcd60e51b815260206004820152601d60248201527f427564676574206d7573742062652067726561746572207468616e20300000006044820152606401610567565b6004805490600061117a83612188565b9091555050600480546000818152600360205260409020818155600181018890556002810180546001600160a01b03191633179055909181016111bd8782612203565b50600581016111cc8682612203565b506006810184905560006007820181905542600883015560098201805460ff191690556040513391899185917f2e16fe6185221195ff919455425d57cc20788b7457ce4ab0a9b39ffbbe4e25b291a45095945050505050565b606080600080600080600080600360008b8152602001908152602001600020600001546000036112675760405162461bcd60e51b81526004016105679061212c565b60008a81526003602090815260408083208c8452600b0190915281205490036112a25760405162461bcd60e51b8152600401610567906122f8565b60008a81526003602090815260408083208c8452600b8101909252822054600a8201805492939192839081106112da576112da61215c565b600091825260209091206007909102016003810154600482015460058301546006840154600185018054959650946002870194939260ff80821693610100830490911692620100009092046001600160a01b031691889061133a906120b0565b80601f0160208091040260200160405190810160405280929190818152602001828054611366906120b0565b80156113b35780601f10611388576101008083540402835291602001916113b3565b820191906000526020600020905b81548152906001019060200180831161139657829003601f168201915b505050505097508680546113c6906120b0565b80601f01602080910402602001604051908101604052809291908181526020018280546113f2906120b0565b801561143f5780601f106114145761010080835404028352916020019161143f565b820191906000526020600020905b81548152906001019060200180831161142257829003601f168201915b505050505096509a509a509a509a509a509a509a509a505050509295985092959890939650565b61146e611a2d565b600080546040516001600160a01b039091169047908381818185875af1925050503d80600081146114bb576040519150601f19603f3d011682016040523d82523d6000602084013e6114c0565b606091505b50509050806115055760405162461bcd60e51b815260206004820152601160248201527015da5d1a191c985dd85b0819985a5b1959607a1b6044820152606401610567565b50565b60008060006060806000806000806000600360008c81526020019081526020016000206000015460000361154e5760405162461bcd60e51b81526004016105679061212c565b60008b815260036020819052604090912060018101546002820154928201546006830154600784015460088501546009860154600a870154600488018054989997986001600160a01b039889169890971696909560058b019590949093909260ff9091169187906115be906120b0565b80601f01602080910402602001604051908101604052809291908181526020018280546115ea906120b0565b80156116375780601f1061160c57610100808354040283529160200191611637565b820191906000526020600020905b81548152906001019060200180831161161a57829003601f168201915b5050505050965085805461164a906120b0565b80601f0160208091040260200160405190810160405280929190818152602001828054611676906120b0565b80156116c35780601f10611698576101008083540402835291602001916116c3565b820191906000526020600020905b8154815290600101906020018083116116a657829003601f168201915b505050505095509a509a509a509a509a509a509a509a509a509a50509193959799509193959799565b6116f4611a2d565b6001600160a01b0381166117595760405162461bcd60e51b815260206004820152602660248201527f4f776e61626c653a206e6577206f776e657220697320746865207a65726f206160448201526564647265737360d01b6064820152608401610567565b61150581611ad9565b6000828152600360208190526040909120015482906001600160a01b031633146117c65760405162461bcd60e51b815260206004820152601560248201527427b7363c90383937b532b1ba1032bc32b1baba37b960591b6044820152606401610567565b6000838152600360205260408120548491036117f45760405162461bcd60e51b81526004016105679061212c565b6000848152600360209081526040808320868452600b019091528120548591859190036118335760405162461bcd60e51b8152600401610567906122f8565b6000868152600360209081526040808320888452600b8101909252822054600a82018054929391928390811061186b5761186b61215c565b60009182526020909120600790910201600581015490915060ff16156118d35760405162461bcd60e51b815260206004820152601b60248201527f4d696c6573746f6e6520616c726561647920636f6d706c6574656400000000006044820152606401610567565b80600401544211156119275760405162461bcd60e51b815260206004820152601960248201527f4d696c6573746f6e6520646561646c696e6520706173736564000000000000006044820152606401610567565b60058101805460ff1916600117905542600682015560078301889055604051339089908b907f5142be5dffcf006606e1b0e030730d45f5cd24edfb7566efc3dc188625ac3e9c90600090a4600160005b600a8501548110156119ce5784600a0181815481106119985761199861215c565b600091825260209091206005600790920201015460ff166119bc57600091506119ce565b806119c681612188565b915050611977565b508015611a215760098401805460ff191660029081179091556040518b917f35872be4c2085eaf9ca9a10d056eefec79968f825846792411ede75f331e939291611a189190612118565b60405180910390a25b50505050505050505050565b6000546001600160a01b031633146106415760405162461bcd60e51b815260206004820181905260248201527f4f776e61626c653a2063616c6c6572206973206e6f7420746865206f776e65726044820152606401610567565b611a8f611bbf565b6002805460ff191690557f5db9ee0a495bf2e6ff9c91a7834c1ba4fdd244a5e8aa4e537bd38aeae4b073aa335b6040516001600160a01b03909116815260200160405180910390a1565b600080546001600160a01b038381166001600160a01b0319831681178455604051919092169283917f8be0079c531659141344cd1fd0a4f28419497f9722a3daafe3b4186f6b6457e09190a35050565b600260015403611b7b5760405162461bcd60e51b815260206004820152601f60248201527f5265656e7472616e637947756172643a207265656e7472616e742063616c6c006044820152606401610567565b6002600155565b611b8a611c08565b6002805460ff191660011790557f62e78cea01bee320cd4e420270b5ea74000d11b0c9f74754ebdbfc544b05a258611abc3390565b60025460ff166106415760405162461bcd60e51b815260206004820152601460248201527314185d5cd8589b194e881b9bdd081c185d5cd95960621b6044820152606401610567565b60025460ff16156106415760405162461bcd60e51b815260206004820152601060248201526f14185d5cd8589b194e881c185d5cd95960821b6044820152606401610567565b600060208284031215611c6057600080fd5b5035919050565b6000815180845260005b81811015611c8d57602081850181015186830182015201611c71565b506000602082860101526020601f19601f83011685010191505092915050565b634e487b7160e01b600052602160045260246000fd5b60058110611ce157634e487b7160e01b600052602160045260246000fd5b9052565b8a8152602081018a90526001600160a01b0389811660408301528816606082015261014060808201819052600090611d1f8382018a611c67565b905082810360a0840152611d338189611c67565b9150508560c08301528460e083015283610100830152611d57610120830184611cc3565b9b9a5050505050505050505050565b6020808252825182820181905260009190848201906040850190845b81811015611d9e57835183529284019291840191600101611d82565b50909695505050505050565b634e487b7160e01b600052604160045260246000fd5b600082601f830112611dd157600080fd5b813567ffffffffffffffff80821115611dec57611dec611daa565b604051601f8301601f19908116603f01168101908282118183101715611e1457611e14611daa565b81604052838152866020858801011115611e2d57600080fd5b836020870160208301376000602085830101528094505050505092915050565b600080600080600060a08688031215611e6557600080fd5b85359450602086013567ffffffffffffffff80821115611e8457600080fd5b611e9089838a01611dc0565b95506040880135915080821115611ea657600080fd5b50611eb388828901611dc0565b9598949750949560608101359550608001359392505050565b6001600160a01b038116811461150557600080fd5b60008060408385031215611ef457600080fd5b823591506020830135611f0681611ecc565b809150509250929050565b60008060408385031215611f2457600080fd5b50508035926020909101359150565b60008060008060808587031215611f4957600080fd5b84359350602085013567ffffffffffffffff80821115611f6857600080fd5b611f7488838901611dc0565b94506040870135915080821115611f8a57600080fd5b50611f9787828801611dc0565b949793965093946060013593505050565b6000610100808352611fbc8184018c611c67565b90508281036020840152611fd0818b611c67565b604084019990995250506060810195909552921515608085015290151560a08401526001600160a01b031660c083015260e09091015292915050565b8a81526001600160a01b038a81166020830152891660408201526101406060820181905260009061203f8382018b611c67565b90508281036080840152612053818a611c67565b9150508660a08301528560c08301528460e0830152612076610100830185611cc3565b826101208301529b9a5050505050505050505050565b60006020828403121561209e57600080fd5b81356120a981611ecc565b9392505050565b600181811c908216806120c457607f821691505b6020821081036120e457634e487b7160e01b600052602260045260246000fd5b50919050565b60208082526014908201527327b7363c90383937b532b1ba1031b932b0ba37b960611b604082015260600190565b602081016121268284611cc3565b92915050565b602080825260169082015275141c9bda9958dd08191bd95cc81b9bdd08195e1a5cdd60521b604082015260600190565b634e487b7160e01b600052603260045260246000fd5b634e487b7160e01b600052601160045260246000fd5b60006001820161219a5761219a612172565b5060010190565b8082018082111561212657612126612172565b601f8211156121fe57600081815260208120601f850160051c810160208610156121db5750805b601f850160051c820191505b818110156121fa578281556001016121e7565b5050505b505050565b815167ffffffffffffffff81111561221d5761221d611daa565b6122318161222b84546120b0565b846121b4565b602080601f831160018114612266576000841561224e5750858301515b600019600386901b1c1916600185901b1785556121fa565b600085815260208120601f198616915b8281101561229557888601518255948401946001909101908401612276565b50858210156122b35787850151600019600388901b60f8161c191681555b5050505050600190811b01905550565b8181038181111561212657612126612172565b6040815260006122e96040830185611c67565b90508260208301529392505050565b60208082526018908201527f4d696c6573746f6e6520646f6573206e6f742065786973740000000000000000604082015260600190565b60006020828403121561234157600080fd5b81516120a981611ecc56fea2646970667358221220e3a66b521fcdb90c5398c965b3ebf679041ad00ac349a17859ea0de146a8648364736f6c63430008140033",
  "linkReferences": {},
  "deployedLinkReferences": {}
}