{
  "_format": "hh-sol-artifact-1",
  "contractName": "FoundlingX402",
  "sourceName": "src/FoundlingX402.sol",
  "abi": [
    {
      "inputs": [
        {
          "internalType": "address",
          "name": "_projectContract",
          "type": "address"
        },
        {
          "internalType": "address",
          "name": "_usdcToken",
          "type": "address"
        }
      ],
      "stateMutability": "nonpayable",
      "type": "constructor"
    },
    {
      "anonymous": false,
      "inputs": [
        {
          "indexed": true,
          "internalType": "string",
          "name": "serviceName",
          "type": "string"
        },
        {
          "indexed": false,
          "internalType": "uint256",
          "name": "pricePerUse",
          "type": "uint256"
        }
      ],
      "name": "AgentServiceCreated",
      "type": "event"
    },
    {
      "anonymous": false,
      "inputs": [
        {
          "indexed": true,
          "internalType": "string",
          "name": "serviceName",
          "type": "string"
        },
        {
          "indexed": true,
          "internalType": "address",
          "name": "user",
          "type": "address"
        },
        {
          "indexed": false,
          "internalType": "uint256",
          "name": "amount",
          "type": "uint256"
        }
      ],
      "name": "AgentServiceUsed",
      "type": "event"
    },
    {
      "anonymous": false,
      "inputs": [
        {
          "indexed": true,
          "internalType": "address",
          "name": "user",
          "type": "address"
        },
        {
          "indexed": false,
          "internalType": "uint256",
          "name": "amount",
          "type": "uint256"
        }
      ],
      "name": "BalanceWithdrawn",
      "type": "event"
    },
    {
      "anonymous": false,
      "inputs": [
        {
          "indexed": true,
          "internalType": "address",
          "name": "previousOwner",
          "type": "address"
        },
        {
          "indexed": true,
          "internalType": "address",
          "name": "newOwner",
          "type": "address"
        }
      ],
      "name": "OwnershipTransferred",
      "type": "event"
    },
    {
      "anonymous": false,
      "inputs": [
        {
          "indexed": true,
          "internalType": "uint256",
          "name": "streamId",
          "type": "uint256"
        },
        {
          "indexed": true,
          "internalType": "address",
          "name": "recipient",
          "type": "address"
        },
        {
          "indexed": false,
          "internalType": "uint256",
          "name": "amount",
          "type": "uint256"
        }
      ],
      "name": "StreamClaimed",
      "type": "event"
    },
    {
      "anonymous": false,
      "inputs": [
        {
          "indexed": true,
          "internalType": "uint256",
          "name": "streamId",
          "type": "uint256"
        }
      ],
      "name": "StreamCompleted",
      "type": "event"
    },
    {
      "anonymous": false,
      "inputs": [
        {
          "indexed": true,
          "internalType": "uint256",
          "name": "streamId",
          "type": "uint256"
        },
        {
          "indexed": true,
          "internalType": "uint256",
          "name": "projectId",
          "type": "uint256"
        },
        {
          "indexed": true,
          "internalType": "uint256",
          "name": "milestoneId",
          "type": "uint256"
        },
        {
          "indexed": false,
          "internalType": "address",
          "name": "recipient",
          "type": "address"
        },
        {
          "indexed": false,
          "internalType": "uint256",
          "name": "amount",
          "type": "uint256"
        }
      ],
      "name": "StreamCreated",
      "type": "event"
    },
    {
      "inputs": [
        {
          "internalType": "string",
          "name": "",
          "type": "string"
        }
      ],
      "name": "agentServices",
      "outputs": [
        {
          "internalType": "string",
          "name": "name",
          "type": "string"
        },
        {
          "internalType": "string",
          "name": "description",
          "type": "string"
        },
        {
          "internalType": "uint256",
          "name": "pricePerUse",
          "type": "uint256"
        },
        {
          "internalType": "bool",
          "name": "isActive",
          "type": "bool"
        },
        {
          "internalType": "uint256",
          "name": "totalUsage",
          "type": "uint256"
        },
        {
          "internalType": "uint256",
          "name": "totalRevenue",
          "type": "uint256"
        }
      ],
      "stateMutability": "view",
      "type": "function"
    },
    {
      "inputs": [
        {
          "internalType": "uint256",
          "name": "streamId",
          "type": "uint256"
        }
      ],
      "name": "claimStream",
      "outputs": [],
      "stateMutability": "nonpayable",
      "type": "function"
    },
    {
      "inputs": [
        {
          "internalType": "uint256",
          "name": "projectId",
          "type": "uint256"
        },
        {
          "internalType": "uint256",
          "name": "milestoneId",
          "type": "uint256"
        },
        {
          "internalType": "address",
          "name": "recipient",
          "type": "address"
        },
        {
          "internalType": "uint256",
          "name": "amount",
          "type": "uint256"
        },
        {
          "internalType": "uint256",
          "name": "duration",
          "type": "uint256"
        }
      ],
      "name": "createMilestoneStream",
      "outputs": [
        {
          "internalType": "uint256",
          "name": "",
          "type": "uint256"
        }
      ],
      "stateMutability": "nonpayable",
      "type": "function"
    },
    {
      "inputs": [],
      "name": "emergencyWithdraw",
      "outputs": [],
      "stateMutability": "nonpayable",
      "type": "function"
    },
    {
      "inputs": [],
      "name": "emergencyWithdrawUSDC",
      "outputs": [],
      "stateMutability": "nonpayable",
      "type": "function"
    },
    {
      "inputs": [
        {
          "internalType": "string",
          "name": "serviceName",
          "type": "string"
        }
      ],
      "name": "getAgentService",
      "outputs": [
        {
          "internalType": "string",
          "name": "description",
          "type": "string"
        },
        {
          "internalType": "uint256",
          "name": "pricePerUse",
          "type": "uint256"
        },
        {
          "internalType": "bool",
          "name": "isActive",
          "type": "bool"
        },
        {
          "internalType": "uint256",
          "name": "totalUsage",
          "type": "uint256"
        },
        {
          "internalType": "uint256",
          "name": "totalRevenue",
          "type": "uint256"
        }
      ],
      "stateMutability": "view",
      "type": "function"
    },
    {
      "inputs": [],
      "name": "getAllServiceNames",
      "outputs": [
        {
          "internalType": "string[]",
          "name": "",
          "type": "string[]"
        }
      ],
      "stateMutability": "view",
      "type": "function"
    },
    {
      "inputs": [
        {
          "internalType": "uint256",
          "name": "streamId",
          "type": "uint256"
        }
      ],
      "name": "getStream",
      "outputs": [
        {
          "internalType": "uint256",
          "name": "projectId",
          "type": "uint256"
        },
        {
          "internalType": "uint256",
          "name": "milestoneId",
          "type": "uint256"
        },
        {
          "internalType": "address",
          "name": "recipient",
          "type": "address"
        },
        {
          "internalType": "uint256",
          "name": "amount",
          "type": "uint256"
        },
        {
          "internalType": "uint256",
          "name": "startTime",
          "type": "uint256"
        },
        {
          "internalType": "uint256",
          "name": "endTime",
          "type": "uint256"
        },
        {
          "internalType": "uint256",
          "name": "lastClaimTime",
          "type": "uint256"
        },
        {
          "internalType": "bool",
          "name": "isActive",
          "type": "bool"
        },
        {
          "internalType": "uint256",
          "name": "totalClaimed",
          "type": "uint256"
        }
      ],
      "stateMutability": "view",
      "type": "function"
    },
    {
      "inputs": [],
      "name": "owner",
      "outputs": [
        {
          "internalType": "address",
          "name": "",
          "type": "address"
        }
      ],
      "stateMutability": "view",
      "type": "function"
    },
    {
      "inputs": [],
      "name": "projectContract",
      "outputs": [
        {
          "internalType": "contract FoundlingProject",
          "name": "",
          "type": "address"
        }
      ],
      "stateMutability": "view",
      "type": "function"
    },
    {
      "inputs": [],
      "name": "renounceOwnership",
      "outputs": [],
      "stateMutability": "nonpayable",
      "type": "function"
    },
    {
      "inputs": [
        {
          "internalType": "uint256",
          "name": "",
          "type": "uint256"
        }
      ],
      "name": "serviceNames",
      "outputs": [
        {
          "internalType": "string",
          "name": "",
          "type": "string"
        }
      ],
      "stateMutability": "view",
      "type": "function"
    },
    {
      "inputs": [],
      "name": "streamCounter",
      "outputs": [
        {
          "internalType": "uint256",
          "name": "",
          "type": "uint256"
        }
      ],
      "stateMutability": "view",
      "type": "function"
    },
    {
      "inputs": [
        {
          "internalType": "uint256",
          "name": "",
          "type": "uint256"
        }
      ],
      "name": "streams",
      "outputs": [
        {
          "internalType": "uint256",
          "name": "projectId",
          "type": "uint256"
        },
        {
          "internalType": "uint256",
          "name": "milestoneId",
          "type": "uint256"
        },
        {
          "internalType": "address",
          "name": "recipient",
          "type": "address"
        },
        {
          "internalType": "uint256",
          "name": "amount",
          "type": "uint256"
        },
        {
          "internalType": "uint256",
          "name": "startTime",
          "type": "uint256"
        },
        {
          "internalType": "uint256",
          "name": "endTime",
          "type": "uint256"
        },
        {
          "internalType": "uint256",
          "name": "lastClaimTime",
          "type": "uint256"
        },
        {
          "internalType": "bool",
          "name": "isActive",
          "type": "bool"
        },
        {
          "internalType": "uint256",
          "name": "totalClaimed",
          "type": "uint256"
        }
      ],
      "stateMutability": "view",
      "type": "function"
    },
    {
      "inputs": [
        {
          "internalType": "address",
          "name": "newOwner",
          "type": "address"
        }
      ],
      "name": "transferOwnership",
      "outputs": [],
      "stateMutability": "nonpayable",
      "type": "function"
    },
    {
      "inputs": [
        {
          "internalType": "string",
          "name": "serviceName",
          "type": "string"
        },
        {
          "internalType": "uint256",
          "name": "newPrice",
          "type": "uint256"
        },
        {
          "internalType": "bool",
          "name": "isActive",
          "type": "bool"
        }
      ],
      "name": "updateAgentService",
      "outputs": [],
      "stateMutability": "nonpayable",
      "type": "function"
    },
    {
      "inputs": [],
      "name": "usdcToken",
      "outputs": [
        {
          "internalType": "contract IERC20",
          "name": "",
          "type": "address"
        }
      ],
      "stateMutability": "view",
      "type": "function"
    },
    {
      "inputs": [
        {
          "internalType": "string",
          "name": "serviceName",
          "type": "string"
        }
      ],
      "name": "useAgentService",
      "outputs": [],
      "stateMutability": "payable",
      "type": "function"
    },
    {
      "inputs": [
        {
          "internalType": "address",
          "name": "",
          "type": "address"
        }
      ],
      "name": "userBalances",
      "outputs": [
        {
          "internalType": "uint256",
          "name": "",
          "type": "uint256"
        }
      ],
      "stateMutability": "view",
      "type": "function"
    },
    {
      "inputs": [],
      "name": "withdrawBalance",
      "outputs": [],
      "stateMutability": "nonpayable",
      "type": "function"
    }
  ],
  "bytecode": "0x60806040523480156200001157600080fd5b506040516200200d3803806200200d83398101604081905262000034916200037a565b6200003f33620001cc565b60018055600280546001600160a01b038085166001600160a01b0319928316179092556003805492841692909116919091179055604080518082018252600d81526c696465615f616e616c7973697360981b6020808301919091528251606081019093526024808452620000c1939162001fa4908301396302faf0806200021c565b620001136040518060400160405280601081526020016f6275696c6465725f6d61746368696e6760801b81525060405180606001604052806023815260200162001fea602391396305f5e1006200021c565b620001726040518060400160405280601481526020017f66756e64696e675f696e74656c6c6967656e636500000000000000000000000081525060405180606001604052806022815260200162001fc860229139630bebc2006200021c565b620001c46040518060400160405280601081526020016f3834ba31b42fb3b2b732b930ba34b7b760811b81525060405180606001604052806021815260200162001f83602191396308f0d1806200021c565b505062000554565b600080546001600160a01b038381166001600160a01b0319831681178455604051919092169283917f8be0079c531659141344cd1fd0a4f28419497f9722a3daafe3b4186f6b6457e09190a35050565b6040518060c00160405280848152602001838152602001828152602001600115158152602001600081526020016000815250600684604051620002609190620003b2565b908152604051908190036020019020815181906200027f908262000488565b506020820151600182019062000296908262000488565b5060408201516002820155606082015160038201805460ff19169115159190911790556080820151600482015560a090910151600590910155600780546001810182556000919091527fa66cc928b5edb82af9bd49922954155ab7b0942694bea4ce44661d9a8736c688016200030d848262000488565b50826040516200031e9190620003b2565b604051908190038120828252907f4ab0eff36dc208d87ba04c0ccc0dab81c2075e7336671eeb69bb714b3db304f89060200160405180910390a2505050565b80516001600160a01b03811681146200037557600080fd5b919050565b600080604083850312156200038e57600080fd5b62000399836200035d565b9150620003a9602084016200035d565b90509250929050565b6000825160005b81811015620003d55760208186018101518583015201620003b9565b506000920191825250919050565b634e487b7160e01b600052604160045260246000fd5b600181811c908216806200040e57607f821691505b6020821081036200042f57634e487b7160e01b600052602260045260246000fd5b50919050565b601f8211156200048357600081815260208120601f850160051c810160208610156200045e5750805b601f850160051c820191505b818110156200047f578281556001016200046a565b5050505b505050565b81516001600160401b03811115620004a457620004a4620003e3565b620004bc81620004b58454620003f9565b8462000435565b602080601f831160018114620004f45760008415620004db5750858301515b600019600386901b1c1916600185901b1785556200047f565b600085815260208120601f198616915b82811015620005255788860151825594840194600190910190840162000504565b5085821015620005445787850151600019600388901b60f8161c191681555b5050505050600190811b01905550565b611a1f80620005646000396000f3fe60806040526004361061011f5760003560e01c8063894e9a0d116100a057806396fb62dd1161006457806396fb62dd1461041d578063aed89fed1461044f578063d56c25d31461046f578063db2e21bc14610491578063f2fde38b146104a657600080fd5b8063894e9a0d1461031c578063898f319c146103925780638c02dfdc146103b25780638da5cb5b146103d2578063911fd0ad146103f057600080fd5b806357518b69116100e757806357518b69146101dc5780635fd8c7101461020d57806364d60d911461022257806371107fb5146102e7578063715018a61461030757600080fd5b80630facd77e1461012457806311eac8551461013957806326224c64146101765780634fef1488146101b15780635746c21e146101c6575b600080fd5b61013761013236600461163e565b6104c6565b005b34801561014557600080fd5b50600354610159906001600160a01b031681565b6040516001600160a01b0390911681526020015b60405180910390f35b34801561018257600080fd5b506101a3610191366004611697565b60086020526000908152604090205481565b60405190815260200161016d565b3480156101bd57600080fd5b50610137610658565b3480156101d257600080fd5b506101a360055481565b3480156101e857600080fd5b506101fc6101f736600461163e565b6107f6565b60405161016d959493929190611709565b34801561021957600080fd5b506101376108e5565b34801561022e57600080fd5b5061029561023d366004611740565b6004602081905260009182526040909120805460018201546002830154600384015494840154600585015460068601546007870154600890970154959794966001600160a01b039094169592939192909160ff169089565b60408051998a5260208a01989098526001600160a01b03909616968801969096526060870193909352608086019190915260a085015260c084015290151560e08301526101008201526101200161016d565b3480156102f357600080fd5b50610137610302366004611767565b610a20565b34801561031357600080fd5b50610137610af4565b34801561032857600080fd5b50610295610337366004611740565b6000908152600460208190526040909120805460018201546002830154600384015494840154600585015460068601546007870154600890970154959894976001600160a01b0390941696939592949193909260ff90911691565b34801561039e57600080fd5b506101376103ad366004611740565b610b06565b3480156103be57600080fd5b506101a36103cd3660046117c2565b610d89565b3480156103de57600080fd5b506000546001600160a01b0316610159565b3480156103fc57600080fd5b5061041061040b366004611740565b610fa6565b60405161016d9190611809565b34801561042957600080fd5b5061043d61043836600461163e565b611052565b60405161016d9695949392919061181c565b34801561045b57600080fd5b50600254610159906001600160a01b031681565b34801561047b57600080fd5b506104846111a6565b60405161016d9190611867565b34801561049d57600080fd5b5061013761127f565b3480156104b257600080fd5b506101376104c1366004611697565b611369565b6104ce6113df565b806006816040516104df91906118c9565b9081526040519081900360200190206003015460ff1661053f5760405162461bcd60e51b815260206004820152601660248201527514d95c9d9a58d948191bd95cc81b9bdd08195e1a5cdd60521b60448201526064015b60405180910390fd5b600060068360405161055191906118c9565b9081526020016040518091039020905080600201543410156105ac5760405162461bcd60e51b8152602060048201526014602482015273125b9cdd59999a58da595b9d081c185e5b595b9d60621b6044820152606401610536565b6004810180549060006105be836118fb565b9190505550348160050160008282546105d79190611914565b909155505033600090815260086020526040812080543492906105fb908490611914565b909155505060405133906106109085906118c9565b604051908190038120348252907f9145922370c7c83950e4d3df613f8e2844f42cd10eac76cdba17a9cf55c73f689060200160405180910390a3505061065560018055565b50565b610660611438565b6003546040516370a0823160e01b81523060048201526000916001600160a01b0316906370a0823190602401602060405180830381865afa1580156106a9573d6000803e3d6000fd5b505050506040513d601f19601f820116820180604052508101906106cd919061192d565b90506000811161071f5760405162461bcd60e51b815260206004820152601b60248201527f4e6f20555344432062616c616e636520746f20776974686472617700000000006044820152606401610536565b6003546001600160a01b031663a9059cbb6107426000546001600160a01b031690565b6040516001600160e01b031960e084901b1681526001600160a01b039091166004820152602481018490526044016020604051808303816000875af115801561078f573d6000803e3d6000fd5b505050506040513d601f19601f820116820180604052508101906107b39190611946565b6106555760405162461bcd60e51b81526020600482015260146024820152731554d110c81d1c985b9cd9995c8819985a5b195960621b6044820152606401610536565b6060600080600080600060068760405161081091906118c9565b908152602001604051809103902090508060010181600201548260030160009054906101000a900460ff168360040154846005015484805461085190611963565b80601f016020809104026020016040519081016040528092919081815260200182805461087d90611963565b80156108ca5780601f1061089f576101008083540402835291602001916108ca565b820191906000526020600020905b8154815290600101906020018083116108ad57829003601f168201915b50505050509450955095509550955095505091939590929450565b6108ed6113df565b33600090815260086020526040902054806109435760405162461bcd60e51b81526020600482015260166024820152754e6f2062616c616e636520746f20776974686472617760501b6044820152606401610536565b336000818152600860205260408082208290555190919083908381818185875af1925050503d8060008114610994576040519150601f19603f3d011682016040523d82523d6000602084013e610999565b606091505b50509050806109de5760405162461bcd60e51b815260206004820152601160248201527015da5d1a191c985dd85b0819985a5b1959607a1b6044820152606401610536565b60405182815233907fddc398b321237a8d40ac914388309c2f52a08c134e4dc4ce61e32f57cb7d80f19060200160405180910390a25050610a1e60018055565b565b610a28611438565b82600681604051610a3991906118c9565b9081526040519081900360200190206003015460ff16610a945760405162461bcd60e51b815260206004820152601660248201527514d95c9d9a58d948191bd95cc81b9bdd08195e1a5cdd60521b6044820152606401610536565b82600685604051610aa591906118c9565b90815260200160405180910390206002018190555081600685604051610acb91906118c9565b908152604051908190036020019020600301805491151560ff1990921691909117905550505050565b610afc611438565b610a1e6000611492565b610b0e6113df565b600081815260046020526040902060070154819060ff16610b695760405162461bcd60e51b815260206004820152601560248201527414dd1c99585b48191bd95cc81b9bdd08195e1a5cdd605a1b6044820152606401610536565b600082815260046020526040902060028101546001600160a01b03163314610bd35760405162461bcd60e51b815260206004820152601860248201527f4f6e6c7920726563697069656e742063616e20636c61696d00000000000000006044820152606401610536565b6000610bde826114e2565b905060008111610c255760405162461bcd60e51b81526020600482015260126024820152714e6f20616d6f756e7420746f20636c61696d60701b6044820152606401610536565b42826006018190555080826008016000828254610c429190611914565b90915550506003820154600883015410610c8e5760078201805460ff1916905560405184907f9f42d6cda766c435d861d2ff395b3e17ade9bf57cf770549b62662947ff15b4a90600090a25b60035460405163a9059cbb60e01b8152336004820152602481018390526001600160a01b039091169063a9059cbb906044016020604051808303816000875af1158015610cdf573d6000803e3d6000fd5b505050506040513d601f19601f82011682018060405250810190610d039190611946565b610d465760405162461bcd60e51b81526020600482015260146024820152731554d110c81d1c985b9cd9995c8819985a5b195960621b6044820152606401610536565b604051818152339085907fae8194793eb0586860ad9ca74669746e16d4383642d338c9539501787c5ae8d29060200160405180910390a350505061065560018055565b6002546000906001600160a01b03163314610dde5760405162461bcd60e51b815260206004820152601560248201527413db9b1e481c1c9bda9958dd0818dbdb9d1c9858dd605a1b6044820152606401610536565b60008311610e2e5760405162461bcd60e51b815260206004820152601d60248201527f416d6f756e74206d7573742062652067726561746572207468616e20300000006044820152606401610536565b60008211610e7e5760405162461bcd60e51b815260206004820152601f60248201527f4475726174696f6e206d7573742062652067726561746572207468616e2030006044820152606401610536565b6001600160a01b038416610ec85760405162461bcd60e51b8152602060048201526011602482015270125b9d985b1a59081c9958da5c1a595b9d607a1b6044820152606401610536565b60058054906000610ed8836118fb565b90915550506005546000818152600460208190526040909120888155600181018890556002810180546001600160a01b0319166001600160a01b038916179055600381018690554291810182905590610f32908590611914565b600582015542600682015560078101805460ff1916600117905560006008820155604080516001600160a01b03881681526020810187905288918a9185917fac61232f0207095d174ca72ffb162ace89c023fb2f4ed30131cd657f308e5bf8910160405180910390a4509695505050505050565b60078181548110610fb657600080fd5b906000526020600020016000915090508054610fd190611963565b80601f0160208091040260200160405190810160405280929190818152602001828054610ffd90611963565b801561104a5780601f1061101f5761010080835404028352916020019161104a565b820191906000526020600020905b81548152906001019060200180831161102d57829003601f168201915b505050505081565b805160208183018101805160068252928201919093012091528054819061107890611963565b80601f01602080910402602001604051908101604052809291908181526020018280546110a490611963565b80156110f15780601f106110c6576101008083540402835291602001916110f1565b820191906000526020600020905b8154815290600101906020018083116110d457829003601f168201915b50505050509080600101805461110690611963565b80601f016020809104026020016040519081016040528092919081815260200182805461113290611963565b801561117f5780601f106111545761010080835404028352916020019161117f565b820191906000526020600020905b81548152906001019060200180831161116257829003601f168201915b505050506002830154600384015460048501546005909501549394919360ff909116925086565b60606007805480602002602001604051908101604052809291908181526020016000905b828210156112765783829060005260206000200180546111e990611963565b80601f016020809104026020016040519081016040528092919081815260200182805461121590611963565b80156112625780601f1061123757610100808354040283529160200191611262565b820191906000526020600020905b81548152906001019060200180831161124557829003601f168201915b5050505050815260200190600101906111ca565b50505050905090565b611287611438565b47806112ce5760405162461bcd60e51b81526020600482015260166024820152754e6f2062616c616e636520746f20776974686472617760501b6044820152606401610536565b600080546040516001600160a01b039091169083908381818185875af1925050503d806000811461131b576040519150601f19603f3d011682016040523d82523d6000602084013e611320565b606091505b50509050806113655760405162461bcd60e51b815260206004820152601160248201527015da5d1a191c985dd85b0819985a5b1959607a1b6044820152606401610536565b5050565b611371611438565b6001600160a01b0381166113d65760405162461bcd60e51b815260206004820152602660248201527f4f776e61626c653a206e6577206f776e657220697320746865207a65726f206160448201526564647265737360d01b6064820152608401610536565b61065581611492565b6002600154036114315760405162461bcd60e51b815260206004820152601f60248201527f5265656e7472616e637947756172643a207265656e7472616e742063616c6c006044820152606401610536565b6002600155565b6000546001600160a01b03163314610a1e5760405162461bcd60e51b815260206004820181905260248201527f4f776e61626c653a2063616c6c6572206973206e6f7420746865206f776e65726044820152606401610536565b600080546001600160a01b038381166001600160a01b0319831681178455604051919092169283917f8be0079c531659141344cd1fd0a4f28419497f9722a3daafe3b4186f6b6457e09190a35050565b600781015460009060ff166114f957506000919050565b600482015460058301544291600091611512919061199d565b90506000846004015483611526919061199d565b905081811061154c5784600801548560030154611543919061199d565b95945050505050565b60008282876003015461155f91906119b0565b61156991906119c7565b9050600086600801548261157d919061199d565b90506000811161158e576000611590565b805b979650505050505050565b634e487b7160e01b600052604160045260246000fd5b600082601f8301126115c257600080fd5b813567ffffffffffffffff808211156115dd576115dd61159b565b604051601f8301601f19908116603f011681019082821181831017156116055761160561159b565b8160405283815286602085880101111561161e57600080fd5b836020870160208301376000602085830101528094505050505092915050565b60006020828403121561165057600080fd5b813567ffffffffffffffff81111561166757600080fd5b611673848285016115b1565b949350505050565b80356001600160a01b038116811461169257600080fd5b919050565b6000602082840312156116a957600080fd5b6116b28261167b565b9392505050565b60005b838110156116d45781810151838201526020016116bc565b50506000910152565b600081518084526116f58160208601602086016116b9565b601f01601f19169290920160200192915050565b60a08152600061171c60a08301886116dd565b60208301969096525092151560408401526060830191909152608090910152919050565b60006020828403121561175257600080fd5b5035919050565b801515811461065557600080fd5b60008060006060848603121561177c57600080fd5b833567ffffffffffffffff81111561179357600080fd5b61179f868287016115b1565b9350506020840135915060408401356117b781611759565b809150509250925092565b600080600080600060a086880312156117da57600080fd5b85359450602086013593506117f16040870161167b565b94979396509394606081013594506080013592915050565b6020815260006116b260208301846116dd565b60c08152600061182f60c08301896116dd565b828103602084015261184181896116dd565b604084019790975250509215156060840152608083019190915260a09091015292915050565b6000602080830181845280855180835260408601915060408160051b870101925083870160005b828110156118bc57603f198886030184526118aa8583516116dd565b9450928501929085019060010161188e565b5092979650505050505050565b600082516118db8184602087016116b9565b9190910192915050565b634e487b7160e01b600052601160045260246000fd5b60006001820161190d5761190d6118e5565b5060010190565b80820180821115611927576119276118e5565b92915050565b60006020828403121561193f57600080fd5b5051919050565b60006020828403121561195857600080fd5b81516116b281611759565b600181811c9082168061197757607f821691505b60208210810361199757634e487b7160e01b600052602260045260246000fd5b50919050565b81810381811115611927576119276118e5565b8082028115828204841417611927576119276118e5565b6000826119e457634e487b7160e01b600052601260045260246000fd5b50049056fea2646970667358221220cc78d817cf0516273761c1de9a46b53d14b6757a7964d86663a88a5161ba86d664736f6c6343000814003341492d67656e65726174656420696e766573746f72207069746368206465636b7341492d706f7765726564206964656120666561736962696c69747920616e616c79736973564320646174616261736520616e616c7973697320616e6420746172676574696e6741492d64726976656e206275696c6465722d6578656375746f72206d61746368696e67",
  "linkReferences": {},
  "deployedLinkReferences": {}
}